:100000000C9465250C9488260C9484250C948225E8
:100010000C9482250C9482250C9482250C948225C4
:100020000C9482250C9482250C9482250C948225B4
:100030000C9482250C9482250C9482250C94B32573
:100040000C9482250C9482250C9493250C94822583
:100050000C9482250C9482250C9482250C94822584
:100060000C9482250C9482250C9482250C94822574
:100070000C9482250C9482250C9482250C94822564
:100080000C9482250C9482250C948225808080809B
:10009000808080808080828484807F7D7C7C7C796D
:1000A000787D83857E7F878B8E8A827E807E757148
:1000B000737A83857F808991928A8280817D6E6246
:1000C000656F818D8A898F96968A7C757B7E726733
:1000D000666C7E8C8B8B929B98887A737A7F766E17
:1000E0006C70808985838A96978D80797E827B73F8
:1000F0006D6D7D86807B818E938E827B80847C7308
:100100006B6C7983817C81909794888082857B72E7
:1001100069677582847E808D95948B8181847D75DD
:100120006A6774818680808A93948A8081867F77CB
:100130006A64707F8480808890928A7E8085807ACD
:100140006D66707F86807F8690958D808288837DA6
:100150006F666C7C85828086909690818185827E98
:100160006F656A7A85827F838D9590828184817D97
:100170007066687783837F818A9592848283827E8A
:10018000726766748182808189969689858483806E
:1001900074696673828582838997988B868484814B
:1001A0007668626E7E8180808595978C8684848156
:1001B000786960697A8080808394988D868385834E
:1001C0007B6C62697980807F819399908884868531
:1001D0007E6F64697980807E809198918985878718
:1001E000817467697880827E7E8E97938A84848604
:1001F00080746566747E817D7B8B95938B84858608
:1002000082766564717B807C798894938B85858602
:10021000847A6866727C847F7B8894958E878687D3
:10022000857C69656E7A847F7B8794968F878686C6
:10023000857D6B656C7883807B8492958F878585BF
:10024000867F6C64687582807A818F9590888585B9
:1002500087816F66677380807A808E95918A8686A3
:100260008A857368667180807A7F8C95928B86858B
:100270008A86766A666F7E807A7D8A94938D87857A
:100280008A87796C656D7C7E787A8692928D878379
:100290008A887C6F666C7C807A7A8490928E888360
:1002A00089887E71666A7A807B7A839092908A834D
:1002B00089898073676978807B79818D90918B843F
:1002C000898982766868777F7C7A808C90928C842A
:1002D000898983786967747E7C787E898E928C8523
:1002E0008989847A6A65717C7D787D878D928C8519
:1002F0008889867D6C65707C7E797D868C938E8600
:10030000888A88806F666F7B7F797C858C938F87E6
:10031000888A898272676E7A7F797B8289928E87DA
:100320008789898373666B787D787A8088918E87D8
:1003300086888985766769767D787A7F87918F89C7
:1003400087888B887A6B69767D797A7E8591908BA8
:1003500088888B8A7D6D69747C79797C838F918C98
:1003600088878A8B7F6E67727A78797A818D908C94
:1003700089878A8B8070677079787979808C908D85
:1003800089878A8C8373687079797A787F8B908E6D
:100390008B878B8D8675697078797A777D888E8E5C
:1003A0008B878A8D88786A6F77797A777C868D8E4D
:1003B0008B87898D8A7A6A6E75787A777A848A8D46
:1003C0008A86888C8B7D6C6E74797A777A838A8D35
:1003D0008B87888C8E806F6F74797B787982898D1A
:1003E0008C87878B8F81716F73787B787880878C0F
:1003F0008C88878B8F83747072787B78787F858BFD
:100400008B8886898F84756F71767A78777D838BF8
:100410008B8986899087787171777B79787D838ADB
:100420008C8A868890897A7271767B79787C828AC8
:100430008C8C8789918B7E7471767B79787A8088B1
:100440008B8C8688918C80757074797776777E85B1
:100450008A8C8687918E81777073787776767D84A3
:100460008A8D8787919084797173787776767C838B
:10047000898D87879090867B7273777877757B817B
:10048000888D86858F91887E7373777877757A806B
:10049000878D87858D918A80747376787674797D5F
:1004A000858C87848B8F8B80757375777675797C57
:1004B000848C88858B8F8C82777375787776797C3E
:1004C000838C89858A8F8E84797475787776797A2A
:1004D000818B8884898E8F857A7473777776787923
:1004E000808A8985888D90887C757477767778780E
:1004F000808A8985878C90897E75737777777878FD
:100500007F8A8A86878C918B8077747877787977E1
:100510007E898A86858A908B8278757777787976D6
:100520007B878986858A908D847A767878797975C3
:100530007A85888684898F8D867B767777797A75B8
:100540007983888784888F8F887D7778777A7B75A1
:100550007882888783878E8F8A7E787776797B7595
:100560007780878782868C8F8B80797776797B748A
:10057000767F868782858B8F8C817A78767A7B747A
:10058000757D858682848A8F8D837C79777A7C7568
:10059000747B83868384888E8D837D79767A7C765E
:1005A000747981848282878D8E857E7A76797C7754
:1005B000747881848282858C8E867F7A75797C7846
:1005C000747780848382848B8F87807C767A7D7930
:1005D000757780848382838A8E88817C76797D7A20
:1005E00075757F83838282898E89827D77797D7B11
:1005F00075757E82838181888E89847E77797D7C02
:1006000075747C81838180878C8A857F78797D7DF4
:1006100076747B81838280868C8A878079797D7EDF
:1006200077757A80848280858B8A88807A787D7ECF
:1006300078757980838280848A8A88817A787B7EC3
:100640007875787E82828083898A89827C787B7EB5
:100650007975787D81827F82888989847E797B7FA4
:100660007A76787C81817F8186898A867F7A7B7F92
:100670007B76777B80817F8186898A86807A7C7F82
:100680007C77777A8081808185898A87807B7B7F70
:100690007C7776798080808084888988827C7C8061
:1006A0007D7977787F80808084878988847D7C804D
:1006B0007E7A77787E80808083878989847E7C803B
:1006C0007F7B78787E80808082868889857F7C8029
:1006D0007F7C78787D8080808185888A87807C7F18
:1006E0007F7C79787D8080808184878986807C7F0B
:1006F0007F7D79787C8080808083868887807C7EFF
:100700007F7E79787B7F80808083858888817D7EED
:100710007F7F7B787B7E80808082848888817E7DDD
:100720007E7F7B787A7E80808082838788827E7DD0
:100730007E7F7B787A7D80808081828687827F7DC4
:100740007E7F7C797A7D7F7F808182868783807DB2
:100750007E807D7A7A7D7F7F808081858784807DA1
:100760007E807D7A7A7D7F7F808080848784807D93
:100770007E807E7B7A7C7F7F808080848785817E7F
:100780007E807F7B7A7C7E7F808080848685827E6F
:100790007E807F7C7A7C7E7E808080838585827F60
:1007A0007E80807C7A7B7D7E808080828585838050
:1007B0007E80807D7A7B7D7E80808081858683803F
:1007C0007E80807E7B7B7D7E80808081858684802C
:1007D0007F80807E7B7C7D7D80808081838584801E
:1007E0007E7F807E7B7C7C7D7F8080808385848112
:1007F0007F7F807F7C7C7D7D8080808082858581FD
:100800007F7F807F7C7C7D7D8080808082848481EE
:100810007F7E80807D7C7D7D8080808081848481DE
:100820007F7E80807D7D7D7D7F80808081838482CE
:100830007F7E80807D7D7D7D7F80808081838482BE
:10084000807E80807D7D7D7D7F80808081838482AD
:10085000807E80807D7D7D7D7E808080808384839E
:10086000807F80807E7D7D7D7E808080808384838C
:10087000817F80807E7D7D7C7E80807F808284847D
:10088000817F80807F7E7D7D7E7F807F808183836E
:10089000817F80807F7E7D7D7E7F807F7F8183845E
:1008A00081808080807F7E7D7E7F80807F8083844A
:1008B00082808080807F7E7D7D7F807F7F8082843C
:1008C00082808080807F7E7D7D7F807F7F8082842C
:1008D00082808080807F7E7D7D7E807F7F8081831F
:1008E00082808080807F7E7D7D7E80807F8081830E
:1008F0008280808080807E7D7D7E808080808183FC
:100900008280808080807F7E7D7E808080808083EA
:100910008280808080807F7D7D7E8080807F8082DD
:100920008280808080807F7E7D7E7F80807F8082CD
:100930008281808080807F7E7D7E7F80807F8082BC
:1009400082818080807F7F7E7D7E7F80807F8082AD
:100950008281808080807F7E7D7E7F80807F80829C
:10096000828180808080807E7D7E7E80807F80818D
:10097000828180808080807E7D7D7E80807F7F817F
:10098000828180808080807F7E7E7E7F807F7F806E
:10099000818180808080807F7E7E7E7F807F7F805F
:1009A000818180808080807F7E7E7E7F807F7F804F
:1009B000818180808080807F7E7E7E7F807F7F803F
:1009C00081818180808080807F7E7E7F807F7F802C
:1009D00081818180808080807F7E7E7F807F7F801C
:1009E00081818180808080807F7E7E7E807F7F800D
:1009F00081818180808080807F7E7E7E80807F80FC
:100A000081818181808080807F7E7E7E7F807F80EB
:100A100080818180808080807F7F7E7E7F807F7FDD
:100A200080818181808080807F7F7E7E7F7F7F7FCD
:100A300080818181808080807F7F7E7E7F7F7F7FBD
:100A40008081818180808080807F7E7E7F807F7FAB
:100A50008080808080808080807F7E7E7F7F7F7F9F
:100A60008080808080808080807F7F7E7F807F7F8D
:100A7000808080808080808080807F7E7F807F7F7C
:100A8000808080818080808080807F7F7F7F7F7F6B
:100A9000808080808080808080807F7F7F7F7F7F5C
:100AA000808080808080808080807F7F7F7F7F7F4C
:100AB0007F8080808080808080807F7F7F7F7F7F3D
:100AC0007F8080808080808080807F7F7F7F7F7F2D
:100AD0007F8080808080808080807F7F7F7F7F7F1D
:100AE0007F808080808080808080807F7F7F7F7F0C
:100AF0007F808080808080808080807F7F7F7F7FFC
:100B00007F808080808080808080807F7F7F7F7FEB
:100B10007F808080808080808080807F7F7F7F7FDB
:100B20007F808080808080808080807F7F7F7F7FCB
:100B30007F808080808080808080807F7F7F7F7FBB
:100B40007F808080808080808080807F7F7F7F7FAB
:100B50007F80808080808080808080807F7F7F7F9A
:100B60007F7F808080808080808080807F7F7F7F8B
:100B70007F7F808080808080808080807F7F7F807A
:100B80008080808080808080808080808080808065
:100B900080808082868786827F7B7A7B7B79767570
:100BA0007A807C797F848E95938B847E7A7A7B772A
:100BB00073727F89807C82868F99998C7E726B6D2F
:100BC000717272758690827F84868B9492877D7213
:100BD0006F757A797775838E8685898A8E95938AE3
:100BE0007F726C727574716E7F8C88898B8D8F9318
:100BF00092897C6B63696D6F6B687B8B8C8C8F913A
:100C00009599989286756B6F73766E687A898B8CDE
:100C10008D8D9194948E837267696C726966788801
:100C20008E8F8F9094979690867468676C736B68BC
:100C30007A8B9293918F9294928C82706461687394
:100C40006D6B7A8992949291949795908572655F75
:100C500067716B6977858E92908F90928F8C82717D
:100C6000655F67716B6975838E9291909093919097
:100C700087776B636B75716F7B8995999894939463
:100C8000909087796C626A726D6A74808C90908B98
:100C90008B8D8C8F877C6F646C75706D75808B8F7E
:100CA0008F888989898D877F71666D767371778367
:100CB0008D93928D8E8D8E918B8375696E77747204
:100CC00078838C92918C8D8A8C8E898374676C74F6
:100CD000716E737D858C8A86878387888683766824
:100CE0006C757471747D858D8D8B8B898D8E8C89DF
:100CF0007B6C6D747471747D86908F8E8D8A8D8DF2
:100D00008C897B6B6B72726F727A848E8C8C8A8802
:100D10008B8B8B8A7C6C6B71736F7278828B8A8BF6
:100D2000878589898B8C80706D73747071758089EB
:100D30008B8C89878B8B8E908374707575717174B1
:100D40007F878A8C89888B8A8E9184756F74747181
:100D500070727D84898B878789888D91867871757B
:100D6000757371727D83898B878789888D92897A63
:100D70007276757470717B81888A878789888E9274
:100D80008B7B7376767570707980878A8687898881
:100D90008E938E7E767777767070777F868985865C
:100DA00087868C938E7E777778777070767D85884E
:100DB000848686858B928E7E777576756F6E737955
:100DC0008286838585858A9390817A777877716F1B
:100DD00073798387858685868A9492847D797B7AE8
:100DE000737173798387878887868A9592867D79E0
:100DF0007A797270727882858686858387929085EB
:100E00007C777A79726F7076808485858583879206
:100E100091887E797B7A73716F75808486878784E9
:100E20008893928A807A7C7A75726F757F848788BE
:100E300088838892928A807A7C7A75716E737D82BB
:100E400084878681858E8F897F787A7875716D72B7
:100E50007B8183878781858D8F8B807A7C7A78747C
:100E600070737B8284888782858D918D827B7C7A6A
:100E7000797470727A8083898782858C918F837C64
:100E80007C7A79747070787E81878680838A908E70
:100E9000827C7A7A79746F6F777D80878680828989
:100EA0009191857F7C7D7C777270787E8188888344
:100EB000858B939388807E7E7D797270777C808726
:100EC00087828388929188807D7E7D79726F757923
:100ED0007F8586828186909088807C7D7C79706D0C
:100EE00073787D858683818691918A817E7D7C7AE7
:100EF000716E73777D848683818590928C837F7EEB
:100F00007D7B726E72757B83858480848F928D84E5
:100F1000807E7E7C746F72757B83858480848E92E4
:100F20008E85807E7F7D746F71737A8084848083E8
:100F30008D928E86817E807F7570717279808585B5
:100F400080848D94918983808180777272737A8096
:100F5000868581848C94918A838081807772717375
:100F6000797F868681838B93918B83808180777252
:100F70007071767D848480808991918B837E80805E
:100F800077726F71757D858682818A92928E858057
:100F9000828079747172757C848582818890928D4B
:100FA000847F807F78726E6F717881838080868F76
:100FB000918E857F81807A736E6F70788083808058
:100FC000868E918F868081807B747070707780842C
:100FD0008180868E9291888182807D757170707714
:100FE00080858281878E9392898382817E76726FDB
:100FF0006F757F848280858C9192888382817E76D2
:10100000726F6E747E838280848A91928A848282D7
:101010007F77736F6E727C838180848991928A85D9
:101020008384807974706F727C83828184889193C9
:101030008C868384807A746F6D70798180808185DD
:101040008F918C858383807A75706D7079818080B3
:1010500080848E908C868384807B75716D6F7880A0
:10106000808080838D908D878585817D78736F6F7B
:101070007880808180838C908E878685817E78734E
:101080006E6D767E80807E818A8F8D878585827E5B
:1010900079746F6D767E81817F818A908E88868655
:1010A00083807B77706E767D80818080888F8E894B
:1010B000878684807C78716E757C80818080878E45
:1010C0008E8A878684807C79716D737A80807F8038
:1010D000848C8D89868583807D79716D727980801D
:1010E0007F7F838B8D8A878685807F7B726E717808
:1010F0007F807F7E818A8C8A868584807F7B7270E8
:1011000071767E80807E81898C8B88868681807CCA
:10111000747171767E80807E81898B8A87868580D6
:10112000807C757070757C80807E80888B8A8887D3
:101130008581807D777271757C80807E80878B8BC6
:1011400088888681807E787270747B80807F8087BB
:101150008B8B878887838280797472747B80807E92
:1011600080858A8A8687868382807A747173798083
:10117000807D7F8388898687858483807C7672746E
:101180007A80807E7F8289898788868584817E7740
:101190007373797F807D7E8187888687858484824A
:1011A0007E777272777E7E7C7C8086878788868455
:1011B00084827F797372777D7E7C7B808586878849
:1011C00086848482807A7472777D7E7D7C8084863A
:1011D000878786848483807C7572767C7F7E7C8022
:1011E0008486878786858484817C7673777C807FFC
:1011F0007C808486878886858484827D7773767CEC
:101200007F7F7C7F8385868786858483827E7873D3
:10121000767A7F7F7C7F8285878886858484827FBB
:101220007874757A7F7F7D7F8285868786858483C3
:10123000827F787475797F7F7D7E818486868685BE
:1012400084838280797575787E7E7C7D80828486B9
:101250008584848382807B7675787D7E7C7D8082A8
:1012600084868684848383807B7674787D7D7B7C92
:101270007F8183848484848383817C7775787D7E79
:101280007C7D7F8284858484848384827D79757962
:101290007E7E7D7D7F8183858584838384827F7A42
:1012A00076787E7E7C7C7E80828484848383848343
:1012B000807A76787D7E7C7C7E8082848484848340
:1012C0008583807C77797C7E7C7C7D7F8183838431
:1012D00083848584817C77797C7E7C7C7D7F81831F
:1012E000848484848584827D78797C7E7C7C7C7E09
:1012F0008183848484848585827E78787B7E7D7CEE
:101300007D7E8182848484848585837E79787B7DDB
:101310007C7B7C7D808283848384858584807A79CC
:101320007B7D7D7C7C7D80828384838485858480B5
:101330007A797B7D7C7C7C7D8081838483848485B9
:1013400084807B797B7C7C7C7C7D808183848384AE
:10135000848484817C797B7C7D7C7C7D808183849A
:101360008384848585817C797B7C7D7C7C7D7F8189
:1013700083848484848585817C797A7B7C7C7B7C76
:101380007E8083838484838484827D797A7B7D7C60
:101390007C7C7E8082838383838484827E7A7A7B52
:1013A0007D7D7C7D7E8082828383838484827E7B3C
:1013B0007A7C7D7D7C7D7E8082828383838385832E
:1013C0007F7B7A7B7D7D7C7D7E808182838382832F
:1013D00084837F7B7B7B7D7D7C7D7D80818283831D
:1013E00082838483807C7B7C7D7D7D7D7D8080820B
:1013F000828382828483807D7B7C7D7D7D7D7D7FF9
:101400008081828282828483807E7C7C7E7E7D7DE0
:101410007D808081828282828484817F7D7D7E7EC8
:101420007E7D7D7F8081818281828383817F7D7DBE
:101430007E7E7E7D7D7E8080818181818383817FB0
:101440007D7D7D7E7E7D7D7E8080818181818383A7
:10145000827F7D7D7D7E7E7D7D7E7F80818181819D
:10146000838382807D7D7D7E7E7D7D7E7F80818188
:101470008181828382807E7D7D7E7E7D7D7E7F8078
:1014800081818181828383817F7E7E7F7F7E7D7E5D
:101490007F8080818080828383807F7E7E7E7F7E4E
:1014A0007D7E7F7F80818081828383817F7E7E7F3E
:1014B0007F7E7D7E7E7F8081808182838381807E2E
:1014C0007E7F7F7E7E7E7E7F80808081818383821F
:1014D000807F7E7F7F7E7E7E7E7F80808080818217
:1014E0008382807F7E7E7F7F7E7E7E7E8080808006
:1014F00081828382807F7E7F7F7F7E7E7E7E8080F2
:10150000808081828282817F7F7F7F7F7E7E7E7EE0
:101510007F80808080818282807F7F7F7F7F7E7ED0
:101520007E7E7F8080808081828281807F7F7F7FBE
:101530007E7E7E7E7F8080808081828281807F7FB0
:101540007F7F7F7E7E7E7F8080808081828281809F
:101550007F7F7F7F7F7F7E7E7F8080808080818194
:1015600081807F7F7F7F7F7F7E7E7F808080808085
:10157000818181807F7F7F7F7F7F7E7E7F7F808074
:101580008080818181807F7F7F7F7F7F7E7E7F7F64
:1015900080808080818181807F7F7F7F7F7F7E7E52
:1015A0007F7F8080808081818180807F7F7F7F7F3F
:1015B0007F7E7F7F8080808080818180807F7F7F31
:1015C0007F7F7F7F7F7F80807F8080818180807F21
:1015D0007F7F7F7F7F7F7F7F80807F808080818013
:1015E000807F7F7F7F7F7F7F7F7F80807F80808005
:1015F000818080807F7F7F7F7F7F7F7F80807F80F3
:101600008080808080807F7F7F7F7F7F7F7F8080E2
:101610007F808080808080807F7F7F7F7F7F7F7FD3
:1016200080807F808080808080808080807F7F7FBE
:101630007F7F7F807F7F808080808080807F807FB1
:101640007F7F7F7F7F7F7F7F808080808080807FA3
:1016500080807F7F7F7F7F7F7F7F80808080808092
:10166000807F7F807F7F7F7F7F7F7F7F7F80808085
:10167000808080808080808080808080808080806A
:101680008080808080808080808080808080818158
:10169000808080808080807F7F7F8080808080804D
:1016A0008080808080808080818080808080807F3A
:1016B0007F7F7F7F8080808080808080808080812D
:1016C0008181808080808080808080808080808018
:1016D000808080808080808080808080808080800A
:1016E0007F7F7F7F808080808080808080808080FE
:1016F00081818181818180808080808080808080E4
:1017000080818080808080808080808080808080D8
:1017100080807F7F7F7F7F7F8080808080808080CF
:1017200080808080808080808080808080808080B9
:10173000808080808181828282818080808081819E
:101740008181808080807F7F7F7F7F7F7F7F7F7FA1
:101750007F7E7E7D7D7D7D7E7E7E7F7F7F808080A3
:101760008080818181828384858585848484858548
:1017700084848483838281818180807F7E7D7D7C5F
:101780007B7A79787778787A7779807B7A7A7E83B2
:1017900081808184848585878888888887868687F4
:1017A000898888868686848281807F7D7C7A7A7922
:1017B00079797878777777787879797979797A7BA0
:1017C0007C7E7F80808183848585858585848485F2
:1017D00085868787888A8B8C8D8C8B898682807C96
:1017E000797675757576787A7B7C7C7B7978777677
:1017F000767677787B7E7F808283828282838485FF
:101800008686868585848383848687898B8E90925D
:1018100092908C88837E7A76737272737577787AF9
:101820007B7C7C7A797777767778797A7B7E808013
:10183000828484838383848585858584838282836F
:101840008386888A8B8E909192918D88827C767225
:101850006F6D6E6F7175787C7F807F7D7B79777619
:10186000757677797A7C7F80828485858484848587
:101870008788878684828181828385888B8D8F90FB
:101880009192918E8A847E7873706E6D6E7073788B
:101890007C7F8081807E7B797776757676787B7E9B
:1018A00081848586878584838485878887858380EE
:1018B0008080818385878B8F91939392908D89848B
:1018C0007F79736E6B69696B6F74797D80808180BD
:1018D0007E7C797675747577797C7F82858686863D
:1018E00085848383848688888886848281828385B0
:1018F00086898C8E8F8F8F8D8B8884807A746F6BA6
:101900006A6A6C6F73787B7F8081807F7D7A777560
:101910007576787A7D8082858788898886848283B7
:101920008486898A898885838282838486898B8D4F
:101930008E8E8E8D8B8985807B756F6B696A6C6FDF
:1019400074787C7E8080807E7C7A78767677787AF0
:101950007D80818486868686858483838485878945
:101960008A898785828180818386888B8C8C8C8B09
:101970008A8987837F79736D6A696B6F7376797CE7
:101980007F80807F7D7B78767576777A7C7F818398
:101990008688888988868483838487898A8B8986D8
:1019A000838080808184878A8C8E8E8D8C8A8886C5
:1019B000827E78716B6867696E73777B7D7F8080CC
:1019C000807E7C7A78767677797C8082848686863B
:1019D00086868584848486888A8A898784817F7FB5
:1019E0008082868A8D8F8F8D8B89878582807B769A
:1019F000706A6766696E74797D7F8080807F7D7B89
:101A000079787777787B7E808284868687878685DB
:101A10008485858788898988868482818182848774
:101A2000898C8E8F8E8D8B888683807C77706B6798
:101A300065676D73797D8080807F7E7E7E7D7C7A18
:101A40007978797B7E808284858787878786868779
:101A50008888898888868582818081838486878931
:101A60008B8D8D8C898683807C77726E6A686769BE
:101A70006D72777B7E7F7F7F7F7F7F7E7D7B7A7AB3
:101A80007A7C7E8084868889898887868685868711
:101A9000898A8A89868482818080818384868788F6
:101AA0008888878582807C797673706E6E6E70739D
:101AB00076797C7F807F7E7D7C7C7C7C7D7E7F8157
:101AC00083848586868585858586878889898989B1
:101AD00088868482818080808081818182828383E4
:101AE00083838281807D7B7977767575747576784E
:101AF000797A7B7B7B7B7C7C7D7E7F808080808114
:101B00008181818182838486878888888887868688
:101B10008585848382818080807F7F8080818283AD
:101B2000838281807F7E7C7B7B7B7B7A7A7A7A7AE8
:101B30007A7A7A7A7B7D7E7F8080808080808081C7
:101B4000828383848484858585858585868686864B
:101B50008584838281808080818181818180808071
:101B60007E7E7D7D7E7E7E7E7D7D7C7B7B7B7C7CA8
:101B70007D7D7D7D7D7D7D7D7D7D7E808080818183
:101B8000828283838384858586858584848382811C
:101B9000808080818181818181818080808080803E
:101BA0007F7F7F7E7E7D7C7C7C7C7D7D7E7E7E7E5D
:101BB0007E7E7D7D7D7E7F7F7F7F7F7F7F7F7F7F3E
:101BC00080808182838383838383828281818282F6
:101BD000818181808080807F808080808080808003
:101BE000807F7F7F7F7F7F7F7F7F7F7F7E7E7D7D0A
:101BF0007E7F8080808080808080808081818282E2
:101C000083838383828181818282828282828282B3
:101C10008281818181818181818080807F7E7E7EC1
:101C20007E7F7F7F7F7F7F7F7F7F7F7F7F808080C2
:101C300080807F7F7E7E7E7F7F7F808080808080AF
:101C40008181818181828282828281818080808083
:101C50008181808080808080808080808080808082
:101C6000807F7F7F7F7F80807F7E7F8082817E7B81
:101C70007B7D8081818283848583817F7D7C7C7C68
:101C80007B7B7B7C7E808182818283848482818055
:101C9000818180807F7F8080808080808080807F45
:101CA0007E7F7F80807F7F7F80807F7E7F7F7F7F42
:101CB0007F80807F7F808180808081828282838319
:101CC00082828384838383838483828282828282EA
:101CD000828282828282818180808181807E7F80F7
:101CE000807F7B7B7D7D7C7B797A7C7E7E7D7D7E2B
:101CF00080818180808083838180818283838281CF
:101D00008284848482838588888887868482807C94
:101D100079787776767576777879797979797A7C42
:101D20007B79797C7D7E7D7C7D80828383848586C2
:101D30008685828081838485898C8D8F939594920A
:101D40008E89848079726F6E6D6E717376787B7C0C
:101D50007D7C7B7B7B7A7876787A7B7A797B7E82D6
:101D600083858587888785828181838587898F9709
:101D70009895949899958E86807D78716A696D7032
:101D80007375767A7E7D7B7A7B7A797876787A7AC3
:101D90007776787C8081838487898883808080803F
:101DA00082868A919BA09E999898948B807975746D
:101DB000706B6D72797E807F7F807D77726F6F70C0
:101DC0006F71767B7C7A7B7D808183828384838143
:101DD0007F7E7E8084898E949AA0A5A19891918D12
:101DE000847C757374757070757C7E7E7C7A7A786D
:101DF000736E6D6E7172757A7E7E7C7C7D80808163
:101E000080828281807D7D7E8184898E949A9FA24A
:101E10009D95908F8A827B777677777273787D7EB7
:101E20007C79787875706D6D6F7174777A7B7A7B59
:101E30007C7F808182828483817E7E7E8083878C8A
:101E400092989DA09D9793918C86807B7A7B7977E1
:101E5000787A7D7F7D7A797775716F6D6F7175781E
:101E60007B7B797A7D808080808283817F7C7D7E90
:101E70008084898F949B9F9E989594918A847F7D7E
:101E80007D7C79787A7D7E7E7B79777572706E6FD6
:101E9000707377797877797B7E7F7F7F8081807E92
:101EA0007C7C7E8083888C939A9D9A9796938F8969
:101EB000837F7E7E7B7A7A7C7E807E7B797775726B
:101EC000706F6F717477777678797D7F7F7F808090
:101ED000807F7D7C7D8084888C91989B9A97969456
:101EE000918C8681807E7C7C7D7E7F80807E7B77EE
:101EF0007573717070717478787776787B7E7E7E7A
:101F00007E7F7F7E7D7C7D8084898D91979996965A
:101F10009794908C868281807C7C7C7C7E7E7D7C8C
:101F20007A76747371717171747777767777797C5B
:101F30007D7D7E7E7D7E7E7E7F8184888C90959463
:101F4000939596928F8B8684827F7C7D7D7D7F7E2C
:101F50007D7C79767573727272727678777878791B
:101F60007C7D7E7D7E7F7F7F8080818386888B8E57
:101F70009090909393908E8C8A88878381807F7DC8
:101F80007C7B7B7A787776767575747376777575E2
:101F90007778797C7C7D7F80808081818182838558
:101FA000888C8E8E91949493928F8C8A8682807F77
:101FB0007D7B7A79797876767574747372727575BB
:101FC000747577787B7D7D7F80818181818181823D
:101FD00084868A8D8E8F92949492908D8B87838045
:101FE0007F7D7C7B7B7B7B79787675757473727370
:101FF00076757577787A7D7E7E8081818282818117
:10200000828385888B8D8F91949594918F8C8A860D
:1020100082807E7D7C7B7B7B7A787776757473712A
:10202000717475747577797B7D7E7F808180818105
:102030008181828386898B8D8E919493918F8D8BF4
:102040008883807F7E7C7B7B7C7B797877767574D8
:102050007271737574747678797C7D7E80818080EE
:10206000818181828385898B8C8E91949392908ECD
:102070008C898581807E7D7C7C7D7C7A7977767683
:10208000747372747574747778797C7D7E808080C7
:1020900081818081828386898B8C8E9194939190AB
:1020A0008D8B888380807E7D7C7C7D7C7A79787640
:1020B000757472737574747677777A7C7C7E8080A1
:1020C0008080808081828488898A8D909192918F8E
:1020D0008E8C888582807F7E7D7D7E7D7C7A787700
:1020E000767472737474737677777A7C7C7D7F7F75
:1020F0007F80808081818487888A8D909193918F61
:102100008F8C88868280807F7E7F7E7E7D7B7978C3
:10211000777574747473747677787A7C7D7E807F3B
:102120008080808080828487888B8D8F929290902F
:102130008E8B88858280807F7F7F7F7E7D7B797894
:10214000767473747473747677787A7B7C7E7F7F11
:102150007F80808081828587888B8E9091918F8E01
:102160008D8986838180807F7E7F7F7E7C7B79786E
:10217000767574747374767777797B7C7E7F7F7FD6
:102180008080808081838587898C8E90908F8F8DD1
:102190008A88858280807F7F7F7F7E7D7B7A79774A
:1021A0007675757474757777787A7B7D7E7F7F809E
:1021B00080808081838486898B8C8F908E8E8D8A9F
:1021C0008886828180807F7F7F7E7E7C7B79787627
:1021D00076767574757777787A7B7C7E7E7E7F8065
:1021E000808081828586888B8C8E8F8E8E8D8B8869
:1021F00086838180807F7F7F7E7E7C7B7A78777705
:10220000767575767878797A7B7C7E7E7E7F7F8026
:102210008081838586888A8C8E8F8E8E8D8B888632
:10222000838281808080807F7E7C7B7A78777776DE
:102230007575777778797A7B7D7D7D7D7E7F7F80F0
:1022400080838586888A8C8D8E8D8C8C8A87858309
:1022500081808080807F7F7E7C7A797877777675C1
:1022600076777879797B7C7D7D7D7E7E7F808082AC
:10227000848587898A8C8D8D8C8C8B8986848281DC
:10228000808080807F7F7D7C7A797877777676779B
:102290007879797A7C7D7D7D7E7E7F7F8080828467
:1022A0008687898B8C8D8D8C8B8A888683828180B2
:1022B0008080807F7E7D7C7A797878777676777873
:1022C000797A7A7C7D7D7D7D7D7E7F808083858629
:1022D000888A8B8C8C8B8B8A888684828181808093
:1022E00080807F7E7C7B7A78787776767777787A4D
:1022F0007A7B7D7D7D7D7D7E7F80808284858889DF
:102300008A8C8C8C8C8B8987868483828080808069
:102310007F7E7D7C7B7978787777777878797A7B20
:102320007C7D7D7D7E7E7F80808183858788898B93
:102330008C8C8C8B8A898785838281808080807F4A
:102340007E7C7B7A7978787776777778797A7B7CF8
:102350007D7D7E7E7E7F80808284858788898A8C51
:102360008C8B8B898786848281808080807E7E7D35
:102370007B7A7978777777777777787A7A7B7C7DCD
:102380007D7E7E7F8080818284858788898B8B8B10
:102390008B8A898886858382818080807F7E7D7B11
:1023A0007A7978787877777778797A7A7B7C7D7D97
:1023B0007E7F808081828385868788898A8B8B8BCC
:1023C0008A898887858482818080807F7E7D7B7AF0
:1023D000797878777878777779797A7B7C7D7E7E63
:1023E0007D7F80808183848789898A8A8A8A898798
:1023F000878684848382818180807F7E7D7C7A79D8
:10240000797979787879797A7A7A7C7D7D7E7F7F1F
:10241000808081818283848585868686868686857E
:1024200084848383838383828180807F7E7D7C7CA0
:102430007B7B7A7B7B7B7B7B7B7C7C7D7D7E7F80DB
:102440008080818283848585868686878686858549
:10245000848484838383828180807F7E7D7C7B7B78
:102460007B7A7A7B7B7B7B7B7C7C7C7D7D7E7F80AB
:10247000808081828283838484848484848483832F
:10248000838282828281818080807F7E7D7D7D7D4E
:102490007C7C7C7C7C7C7C7C7D7D7D7E7F7F808069
:1024A0008081818282838383838484848484838300
:1024B00083838282828181808080807F7F7F7E7E15
:1024C0007E7E7D7D7D7D7E7E7E7E7E7F8080808027
:1024D00080818181818282828282828282828282E2
:1024E000828181818080808080807F7F7F7F7F7EEE
:1024F0007E7E7E7E7E7E7E7E7F7F7F7F7F808080F1
:1025000080808080808181818181818181818181C0
:1025100081808080808080808080807F7F7F7F7FBF
:102520007F7E7F7F7F7F7F7F7F80808080808080B5
:10253000808080808181818181818181818181818F
:10254000818080808080808080808080808080808A
:10255000807F80808080808080808080808080807C
:102560008080808081818080808080808080808069
:10257000808080808080808080808080808080805B
:10258000807F80808080808080808080808080804C
:10259000808080808080808080808080808080803B
:1025A000808080808080808080808080808080802B
:1025B000808080808080808080808080808080801B
:1025C000808080808080808080808080808080800B
:1025D00080808080808080808080808080808080FB
:1025E00080808080808080808080808080808080EB
:1025F00080808080808080808080808080808080DB
:1026000080808080808080808080808080808080CA
:102610007F808080808080808080808080808080BB
:1026200080808080808080808080808080808080AA
:10263000808080808080808080808080808080809A
:10264000808080808080808080808080808080808A
:10265000808080808080808080808080808080807A
:10266000808080808080808080808080808080806A
:10267000808080808080808080808080808080805A
:10268000808080808080808080808080808080804A
:10269000808080808080808080808080808080803A
:1026A000808080808080808080808080808080802A
:1026B000808080808080808080808080808080801A
:1026C000808080808080808080808080808080800A
:1026D00080808080808080808080808080808080FA
:1026E00080808080808080808080808080808080EA
:1026F00080808080808080808080808080808080DA
:1027000080808080808080808080808080808080C9
:1027100080808080808080808080808080808080B9
:1027200080808080808080808080808080808080A9
:102730008080808080808080808080808080808099
:102740008080808080808080808080808080808089
:102750008080808080808080808080808080808079
:102760008080808080808080808080808080808069
:102770008080808080808080808080808080808059
:102780008080808080808080808080808080808049
:10279000808080808080808080807F81827C7F803C
:1027A0008181807F807F7F7F7F837F7D8284828025
:1027B0008080807D7B80807D7E8084858180827F1B
:1027C0007B7B7C82827F828381818080827E7C8011
:1027D000807F80808384808082807F7E7D7F7F7FFA
:1027E0007F808180808181818080818080808081E4
:1027F000818080808080807F80807F8080808080DA
:1028000080808080808080808080808080808080C8
:102810008080807F808080808080808080808080B9
:102820007F808080808080818080818180808080A6
:102830008080808180808080808080808080818096
:102840008080808080808081808080808080807F88
:1028500080807F8080807F80807F7E7E7F7F7F8082
:102860008080807F80807F7F7F80807F7F8081806D
:102870008080808180808080807F80808180808156
:1028800082807F8080807E7E7F808080808080804C
:102890007F80807F7F7F80807F7F80818182838433
:1028A00084838384828182838585848585828181F6
:1028B000807F7D7B7A7A787979797D7975797C7D6D
:1028C0007F7E80837F7D7F7D8082818890919293BF
:1028D000908E888180807D7C7D7F807F7F807F7CE3
:1028E000797674757674707074797A7C8083837F5E
:1028F0007A7979797C82878D9598999A989591893A
:1029000084817D7B7C7E8081828283807D7A7975E3
:10291000737577777271767A7B7C7E81807A767533
:1029200075757880868C9396999996938F8A86820E
:102930007F7D7F808081838383807E7D7B777678B7
:102940007A787371767A7A7B7F8180797473737306
:10295000777E848D92969C9C96928E89847F7C7DD6
:102960007E7E7F8283848381807E7A76777A787296
:1029700070757B7B7A7D80807A73727271737981D6
:10298000898F949A9C9894908A847F7C7B7D7F81A8
:102990008586868584807D79777878757372767B75
:1029A0007C7C7F807D7873717072757B838B909552
:1029B000999A98938D89847F7B7B7D808385878797
:1029C00084817F7B7A797776747477787B7D7E7F5C
:1029D0007E7975727071757980888E9397999894C5
:1029E0008F89837E7B7A7C80838687888683807DBF
:1029F0007B7A7875747577797C7D7F7E7A76737152
:102A00007173787F868B90969897958F8A86807D54
:102A10007C7C7D818586878784817F7C7A787574CC
:102A20007577797B7D7E7E7B7773737274787D8515
:102A30008A8D939796948F8A86807B7B7B7C80841B
:102A40008587878482817D7A79757577787A7E7EAD
:102A50007F7E7A76747271757980868A9095969663
:102A6000948F8A847E7A7A7A7C8083858787838232
:102A7000807D7B79767678787B7F80807F7C7976A5
:102A80007473767B7F82898F93959493908B847FE8
:102A90007B7978797D818384858382807D7A79765C
:102AA000757677797D7D7D7E7B78777575787B808F
:102AB00083888C909393918E8A84807C7A79797CB8
:102AC0007F8082838282827F7D7B78777777787B35
:102AD0007C7D7D7D7B7B79797A7D7F8084898C8FFD
:102AE0009090908E8884807D7B7A7A7D80808283AE
:102AF0008282807E7D7A78777778797A7C7D7E7E17
:102B00007E7D7D7D7E80828385888B8D8F8E8D8C72
:102B10008984807E7C7C7D7E808182828080807EB4
:102B20007D7B7A7A7A7B7B7C7D7D7E7E7F7F8080D9
:102B3000808081838485858788898A8A898786823F
:102B4000807F7E7E7F7F80808080807F7F7E7D7D96
:102B50007C7A7A7A7B7B7C7D7E7F7F8080808080A0
:102B60008081828281838484858584858583818137
:102B7000818080808080807F7F7F7E7E7C7C7D7B6B
:102B80007B7B7B7C7D7D7D7E7F7F7F7F7F807F7F6A
:102B9000808081818182838282828281818181821F
:102BA000818181818180808080807F7E7E7D7D7D2E
:102BB0007E7E7E7E7E7E7F7F7F7E7F7F7F7F7F802B
:102BC00080808181808180808181818181818281F9
:102BD00082828181818180808080808080808080ED
:102BE00080808080808080808080808080808080E5
:102BF00080808080808080808080818181818181CF
:102C000081818181818181818181818181818080B6
:102C100080808080808080808080808080808080B4
:102C200080808080808080808080808080808080A4
:102C30008080808080808080808080808080808094
:102C4000808080808080807F80807F80807F808087
:102C50008080808080808080808080808080808074
:102C60008081818180808080808080808080808061
:102C7000808080808080807F7F7F807F7F7F7F7F5C
:102C80007F7F807F7F7F7F7F7F7F7F7F7F7F7F7F53
:102C90007F807F80807F80807F8080808080808038
:102CA00080807F8080808080808080808080808025
:102CB0008080818080818181818181828181818107
:102CC0008180818080808080808080807F7F807F05
:102CD0007F7F7E7F7F7E7E7E7E7E7E7E7E7E7E7F0F
:102CE0007E7E7F7F7E7F80808080808080808080ED
:102CF00080808080808181818181818181828181C8
:102D000081818282828282828282828282828281A6
:102D10008282828282838382828282828281828193
:102D2000828181818181808080808080808080809C
:102D30007F7F807F7F7F7F7F7F7F7E7F7F7E7F7FA4
:102D40007E7F7F7F7E7F7F7E7F7F7F7F7F7F7F7F96
:102D50007E7F7F7F7F7F7F7F7F7F7F7F7F7F7F7F84
:102D60007F7F7F7F7F7F7F7F7F807F7F808080806E
:102D70008080808080808080808080808080808053
:102D80008080808080808080808080808080808043
:102D90008080808080808080808080808081808032
:102DA0008080808080808080808080808080808023
:102DB000808080808080808080818080818181810E
:102DC00081818181818182818282828282828282EA
:102DD00081818181818181818180808080808080EA
:102DE000807F7F7F7E7F7E7E7E7E7E7D7D7E7E7EFF
:102DF0007E7E7E7E7E7E7E7E7E7E7E7F7F7F7F7FEE
:102E00007F7F8080808080808080808080808080C4
:102E1000808081818181818181828282828283839B
:102E20008383848484848484848484848483838367
:102E30008383828282828181818080808080808081
:102E4000807F7F7F7F7F7F7E7E7E7E7E7E7E7E7E9A
:102E50007E7E7E7E7E7E7F7F7F7F7F7F7F7F808086
:102E60008080808080808080808080808080808062
:102E70008080818080808080808080808080808051
:102E800080807F7F7F7F7F7F7E7E7E7E7E7E7E7E58
:102E90007E7E7E7E7E7E7E7E7E7E7E7E7E7E7F7F50
:102EA0007F7F7F7F7F7F7F7F7F7F7F7F7F7F7F7F32
:102EB0007F7F7F7F7F7F7F7F7F7F7F7F808080801E
:102EC00080808080818181818282828282838383EB
:102ED00083838383838382828282828181818180D2
:102EE00080808080808080808080808080808080E2
:102EF00080808080808081818181818181818282C6
:102F00008282828283838383838383838383838395
:102F10008383838383838282828282818181818190
:102F2000818181818080808080808080808080809D
:102F300080807F7F7F7F7E7E7E7E7E7E7E7E7E7EA9
:102F40007E7E7E7E7E7E7E7E7E7E7E7E7E7E7E7EA1
:102F50007E7E7E7E7E7E7E7E7E7E7F7F7F7F7F7F8B
:102F60007F7F808080808080808080808080808063
:102F7000808080808080808080808080808181814E
:102F8000818180808081808080808080808080803E
:102F90008080808080808080808080808080808031
:102FA00080808080807F7F7F7F7F7F7F7F7F7F7F2C
:102FB0007F7F7F7F7F7F7F7F7F7F7F7F7F7F7F7F21
:102FC0007F7F7F7F7F7F7F7F7F7F7F7F7F8080800E
:102FD00080808080808080808080808080808081F0
:102FE00081818181818181818181828282828282CB
:102FF00082828281818181818181818181818181BE
:1030000081818181808080808080808080808080BC
:1030100080808080808080808080808080808080B0
:1030200080808080808080808080808080808080A0
:103030008080808080808080808080808080808090
:103040008080808080808080808080808080808080
:103050008080808080808080808080808080808070
:103060008080808080808080808080808080808060
:103070008080808080808080808080808080808050
:103080008080808080808080808080808080808040
:103090008080808080808080808080808080808030
:1030A0008080808080808080808080808080808020
:1030B0008080808080808080808080808080808010
:1030C0008080808080808080808080808080808000
:1030D00080808080808080808080808080808080F0
:1030E00080808080808080808080808080808080E0
:1030F00080808080808080808080808080808080D0
:1031000080808080808080808080808080808080BF
:1031100080808080808080808080808080808080AF
:10312000808080808080808080808080808080809F
:10313000808080808080808080808080808080808F
:10314000808080808080808080808080808080807F
:103150008080808082807E7F8081828080807F7F6F
:103160007F808081818282828180807F7E7E7E7F5F
:103170007F8080808181818080808180808080804C
:1031800080808080807E81827C808180828080813E
:103190007F80807F808080818083807D7F7F7F7F34
:1031A0007E7E807F7D7E8082828484858380807F16
:1031B0007E7C7A7C7E7E7E7F81818281818380801D
:1031C000808080807F8080808080808180808080FF
:1031D00081807F808080807F80817F808080807FF1
:1031E00080808080808080807F7F81807F82807FE0
:1031F00080817F808080807F7E80817F80828281CD
:10320000808281807F8080807F7F808080808281BB
:103210008081808080807F818080808080808080AD
:103220008080807F80808080807F8080807F7E80A3
:10323000807F7E808080807F81807F7F8080808093
:10324000808080807F8080807F808180808080817E
:1032500080808181807F80817F7F8080808080806E
:103260008180808080807F8080808080808080805E
:10327000808080808080808080808081818081814A
:10328000818080808080808080807F7F808081803E
:1032900082838381828281807E7E7E7D7A7B7C7C3C
:1032A0007B7B7D7D7D7D7D7F7F80807E7E82848235
:1032B000828789868382828180808287898C8E8FB3
:1032C0008E8E8C8682807C767371706F7072757949
:1032D0007C7E808181807F7E7C7A7A797A7B7B7F1D
:1032E00083838080828483828588898683838280A9
:1032F0007E7F8286898D92969796938F8A847C763C
:1033000073706C6B6D70727477797B7B7A7B7B7971
:10331000787879797A7B7D808081818282848484C7
:10332000817E7F82848284888C89858382807E7D71
:103330008083878B9096999997949089837B7470FA
:103340006F6D6B6D727576787A7C7C7B7A7B7B791E
:1033500078797A7B7B7E8082838384858381828275
:1033600083837E7C81878583888E8A8480807F7A30
:10337000787B8086898D94999894918F88807873D2
:10338000716E6B6A6D717475787C7D7D7C7D7D7CE2
:103390007A7A7B7C7B7B7E80808081838382828340
:1033A000868384888580818A8984858C8B837F7FCE
:1033B0007F7B797B8084888C92969794908C878091
:1033C0007772716F6C6B6F737475767A7B7A797BB9
:1033D0007C7B7A7A7C7D7D7E8081828384858585F5
:1033E000848383848382828686807F8488848083AA
:1033F0008885807E8081808082878A8B8C8F908D6B
:103400008885827D767372706E6F7173747576784D
:103410007A7B7B7D7F7F7E7F807F7F7F80818181C4
:1034200082838383828384858483828788827F8565
:103430008A8681848986807E80807F7D8084888959
:10344000898C8E8D8984817E7B76727273737171A3
:1034500074767676787A7B7C7C7E7F7F7F808081B5
:103460008182848484848484838283848381838727
:10347000847F808688828086888480808281808024
:1034800082868888888A8A8884807D7B7774727334
:103490007474737577777778797A7C7C7D7E807F9A
:1034A0007F808181808183838282838483828485FB
:1034B0008582828686817F838785818386858180D8
:1034C000808180808083878888888A8A85807E7EC4
:1034D0007B7572757674737477787877797C7D7B79
:1034E0007C7E7F7F7F8081828282848584838384C7
:1034F0008483838484848284858380808586838298
:103500008586848080818180808285878687878880
:1035100085807D7C7B77747476767574767879781F
:10352000787A7C7C7B7D7F7F7F80818282828383AF
:103530008383828383838383838485838385868354
:10354000808385858283858583808080808080815B
:10355000848585858686827F7E7D7A777677777784
:103560007677787979797A7B7D7D7E7F808080809F
:10357000818281818282828282828382828383832A
:1035800084848585868583838484838485848382FB
:1035900080807F7E7D7E7F80828382828381807D2A
:1035A0007C7B79777676777878797A7B7B7B7C7D84
:1035B0007E7E7E7F80808081818182828282838301
:1035C00082818283828283858585858786848385BF
:1035D00085848384858481807F7F7E7D7C7D7E7FE2
:1035E00080808080807F7E7C7B7A7B7B7B7D7D7C06
:1035F0007C7C7C7C7A7B7D7D7D7E7F807F808180F2
:103600008081828382838485858585868787878775
:103610008787868484848381808080807F7D7E7E8E
:103620007D7C7C7D7E7D7D7D7E7E7C7C7E7E7D7DC9
:103630007E7E7D7D7E7D7D7D7D7E7F7F80808181A4
:103640008181818181818181818282828382828262
:103650008383828484848484838382828181808042
:103660007F7F7F7E7D7D7C7C7C7D7E7E7E7F80807B
:103670007F7F8080808080808080807F7F7F7E7E53
:103680007E7F7F7F7F808180808182828383828230
:10369000838282818181818080808180808180801D
:1036A000808080808080808080807F7F7F7E7F7E22
:1036B0007D7F7F7E7F80807F7F807F7F807F7F8018
:1036C00080808080807F7F807F7F808080808081FD
:1036D00081818182828281828281808080808080DB
:1036E00080808080808080808180808081808081D7
:1036F0008180808080807F7F7F7F7F80807F7F80D0
:10370000807F8080808080808080808080808080BA
:103710007F808080808080808080808080808080AA
:103720008180808080808080808080808080808098
:103730008080808080808080818080808080808088
:1037400080807F7F80807F7F7F808080808080807E
:10375000808180808181808080808080807F7F8068
:103760008080807F8080808080808080808080805A
:103770008080808080808080808080808080808049
:103780008080808080808080818181808080808036
:1037900080808080807F808080808080808080802A
:1037A0008081818080818080808080808080808016
:1037B0008080808080808080808080808080808009
:1037C0008080818080807F8080807F7F80807F80FC
:1037D00080808080808080808080808080818080E8
:1037E00080808080807F7F7F7F80808080808080DD
:1037F00080808081818181818180808080808080C3
:10380000807F7F80808080808080808080808181B8
:103810008181808081818080808080807F7F7F80A7
:10382000807F7F8080808080808080808080808199
:103830008080808080808080808080808080808088
:103840008080808080808080808080808080808078
:103850008080807F80808080808080808080808069
:1038600080808080808080808080807F80807F7F5B
:1038700080807F8080808080808080818180808047
:103880008080808080808080808080808080808038
:103890008080808080808080818080808080808027
:1038A0007F7F808080808080808180808080808019
:1038B000808080808080807F7F8080807F8080800B
:1038C00080808080808080808080808080808080F8
:1038D00080808080808080808080808080808080E8
:1038E00080808080808080808080808080808080D8
:1038F00080808080808080808080808080808080C8
:1039000080808080808080808080808080808080B7
:1039100080818080808080808080808080808080A6
:103920008080808080808080808080808080808097
:103930008080808080808080808080808080808087
:103940008080808080808080808080808080808077
:10395000808080808080808080807F808080808068
:103960008080808080808080808080808080808057
:103970008080808080808080808080808080808047
:103980008080808080808080808080808080808037
:103990008080808080808080808081818181808023
:1039A0008080808080808080808080808080808017
:1039B0008080808080808080808080808080808007
:1039C00080807F80807F7F808080808080808080FA
:1039D00080808080808080808080808080808080E7
:1039E00080808080808080808080808080808080D7
:1039F00080808080808080808080808080808080C7
:103A000080808080808080808080808080808080B6
:103BF000808080808080808080807F80807F8080C7
:103C00008080808080808080808080807F80807FB6
:103C10007F807F7F808080808080808080808080A7
:103C20008080808080808080808080808081808093
:103C3000818180808180808081808081808081807E
:103C40008081808181818181818181818181818067
:103C5000818080808180808181808181808081805D
:103C60008080808080808080808080808080808054
:103C70008080808080808080808080808080808044
:103C8000808080808080808080807F8080807F8036
:103C900080808080808080807F807F7F80807F8028
:103CA000807F80807F7F807F7F80807F80807F801B
:103CB0008080808080808080808080808080808004
:103CC00080808080808080808080808080808080F4
:103CD00080808080808080808080808080808080E4
:103CE00080808080808080808080808080808080D4
:103CF00080808080808080808080808080808080C4
:103D000080808080808080808080808080808080B3
:103D100080808080808080808080808080808080A3
:103D20008080808080808080808080808080808093
:103D30008080808080808080808080818080818081
:103D4000808181808081808080818180808180806D
:103D50008180808080808080808080808080808062
:103D60008080808080808080808080818080808052
:103D70008080808080808080808080808080808043
:103D80008080808080808080808080808080808033
:103D900080808080808080807F8080808080808024
:103DA0008080808080808080808080808080808013
:103DB0008080808080808080808080808080808003
:103DC00080808080808080808080808080808080F3
:103DD00080808080808080808080808081808080E2
:103DE0008080808080808080808080807F808080D4
:103DF00080808080808080808080808080808080C3
:103E000080808080808080808080808080808080B2
:103E100080808080808080808080808080808080A2
:103E200080807F8080808080808080808080808093
:103E3000808080807F808080808081808080808082
:103E40008080808080808080808080818080808071
:103E5000807F808080808080808180808080808062
:103E60008080808080808080808080808080808052
:103E70008080808080808080808080808080807F43
:103E8000808080808080808080808080807F808033
:103E90008080808080808080808080808080808022
:103EA0007F80808080818080808080808080808012
:103EB0008080808080808080808080808080808002
:103EC00080808080808080808080808080808080F2
:103ED00080808081808080808080807F7F808080E3
:103EE00080808080808080808080808080808080D2
:103EF00080808080808080808080808080808080C2
:103F000080808080808080808080808080808080B1
:103F10008080808080807F808080808180808080A1
:103F20008080808080808080808080808080808091
:103F30008080808080808080808080808080808081
:103F400080807F8080808080808080808080808072
:103F50008080808080808080808080808080807F62
:103F60008080808080808080808080808080808051
:103F70008080808080808080808080808080808041
:103F8000808080808181818080808080808080802E
:103F90008080808080808080808080808080808021
:103FA000808080808080808080807F7F7F80808014
:103FB0008080808080808080808080808080808001
:103FC00080808080807F7F7F807F7F8080808080F6
:103FD0008080808080808080808080808080807FE2
:103FE0007F7F7F80808080808080808080808081D3
:103FF0008080808080808080808080807F807F7FC4
:104000007F808080808081808181818080808080AD
:1040100080808080807F7F7F7F7E7F7F7F808080A9
:104020008080808181818181808080808080807F8C
:1040300080807F7F7F7F7F80808080808080818183
:104040008182818181818080808080807F7F7F806C
:10405000807F808080808181818282828282818152
:10406000818080808080807F7F7F807F8080808053
:104070008080818181818281828281808080808034
:104080007F7E7F7E7E7F7F7F7F7F8080818081813A
:1040900081818181818080808080807F7E7E7E7E24
:1040A0007E7F7F7F80808080808081818181818010
:1040B0008080807F7F7F7F7E7E7F7F7E7F7F7F800F
:1040C0008081818182818181818080808080807FE8
:1040D0007F7F7F7E7E7E7E7F8080808081818182E7
:1040E0008282828180808080807F7F7F7F7F7F7FD0
:1040F0007F808080808081818181818181818080B9
:104100008080807F7F7F7F7F7F7F808080808081B5
:1041100082818182828181818080808080807F7F96
:104120007F7F7F7F8080808080818181818181818C
:104130008180808080807F7F7F7F7F7F7F7F7F8087
:104140008080808081828281818180808080808067
:104150007F7F7F7F7E7F7E7F7F808080808080806A
:10416000818181818080808080807F7F7F807F7F50
:104170008080808080818181828181818181808035
:10418000808080807F7F7F7F7F7F80808080808134
:10419000818181818181818180808080807F7F7F1A
:1041A0007F8080808080808080818181808081800C
:1041B000808080807F7F807F7F8080808080808003
:1041C00080808080808080808080808080808080EF
:1041D00080808080808080807F7F80807F7F8080E3
:1041E00080808080808080818180808080808080CD
:1041F0007F7F7F7F7F7E7F7F8080808182828282BF
:10420000828181818180808080807F7F7F7F7F7FAE
:104210008080808081818181828181818180808094
:1042200080807F7F7F7F7F7F808080808181818190
:10423000818181808080808080808080808080807B
:10424000808080808080808080808080808080806E
:1042500080808080808080808080808080807F7F60
:104260007F7F7F7F8080808080808181818181804D
:104270008180808080807F7E7E7E7E7F7F80808048
:1042800080818182828282818181808080807F7F23
:104290007F7F7F8080808080808181818281818119
:1042A000818080808080807F7F7F80808080808010
:1042B00080808181808181808080808080808080FA
:1042C00080808080808080808080808080808080EE
:1042D0007F808080808080808080808080808080DF
:1042E00080808080807F7F7F8080808080808080D1
:1042F00081808081818180808080807F7F7F7F7FBF
:104300007F808080808080808080818080808080AD
:10431000808080808080808080808080818080819B
:10432000818080808080808080808080808080808C
:10433000808080808080808080808080808080807D
:10434000808080808080808080808080808080806D
:10435000808080808080808080808080808080805D
:10436000808080808080808080807F7F808080804F
:10437000808080808080808080808080808080803D
:10438000808080808080808080808080808080802D
:10439000808080808080808080808080808080801D
:1043A000808080808080808080808080808080800D
:104AC0008080808080808080800011241FBECFEF96
:104AD000D0E1DEBFCDBF11E0A0E0B1E0EAE8F0E553
:104AE00000E00BBF02C007900D92A030B107D9F7CC
:104AF00022E0A0E0B1E001C01D92AF38B207E1F7BB
:104B00003BD1C1C20C9400001F920F920FB60F92BE
:104B100011248F9381E0809366018F910F900FBED7
:104B20000F901F9018951F920F920FB60F9211249D
:104B30008F935D9BFECF8CB1809383028F910F90FA
:104B40000FBE0F901F90189510928E0210928D023A
:104B500010926B0110926A0180E890E09BBD8ABDC3
:104B600099BD88BD08951F920F920FB60F92112420
:104B70000BB60F922F933F934F935F936F937F9357
:104B80008F939F93AF93BF93EF93FF9395B38FE072
:104B9000892785BBE4E8F2E085819681A781B0850D
:104BA0000196A11DB11D85839683A783B08780914F
:104BB0006A0190916B01892B09F47BC0809181027D
:104BC000909182020197909382028093810280915A
:104BD000810290918202892B09F06BC082E090E003
:104BE000909382028093810280916C0190916D017B
:104BF0008034910529F18038910521F0892B09F045
:104C000058C03BC0E0918D02F0918E02CF01019619
:104C100090938E0280938D02E457FF4FE491F0E071
:104C2000FBBDEABD80918D0290918E02A0E0B0E0C4
:104C3000853F9A40A105B1050CF43BC085DF39C022
:104C4000E0918D02F0918E02CF01019690938E0239
:104C500080938D02E058F44FE491F0E0FBBDEABD93
:104C600080918D0290918E02A0E0B0E081309B4057
:104C7000A105B105F4F068DF1CC0E0918D02F09150
:104C80008E02CF01019690938E0280938D02E058A0
:104C9000F94EE491F0E0FBBDEABD80918D02909168
:104CA0008E02A0E0B0E08A349443A105B1050CF077
:104CB0004BDFFF91EF91BF91AF919F918F917F91CA
:104CC0006F915F914F913F912F910F900BBE0F907D
:104CD0000FBE0F901F90189590936D0180936C01FB
:104CE00010928E0210928D0281E090E090936B0101
:104CF00080936A0180E890E09BBD8ABD99BD88BD24
:104D000012BE87B7826087BF8FB581608FBD08955F
:104D10001F920F920FB60F9211240BB60F922F9382
:104D20003F934F935F936F937F938F939F93AF9333
:104D3000BF93CF93EF93FF93C1E0C09369011092AB
:104D400088021092870280E090E0C6DFC09368017D
:104D5000FF91EF91CF91BF91AF919F918F917F91F3
:104D60006F915F914F913F912F910F900BBE0F90DC
:104D70000FBE0F901F9018951ABA8FEF8BBB909AA9
:104D80009FE094BB85BB81E089BFC2E0C0936A000D
:104D900060E875E280E090E0E7D087B3806687BB8B
:104DA00081EB8FBD89E08EBD80E890E09BBD8ABD20
:104DB00099BD88BD8AE083BF8CE781BFC7BF82E011
:104DC00090E0909382028093810278940F2EF4E811
:104DD000EF2EF2E0FF2EF02D0F2EF0EA8F2E912C09
:104DE000A12CB12CF02D6894332436F86894CC248F
:104DF000C7F80F2EFAE04F2E512CF02DDD24D3945E
:104E00000F2EF1E06F2EF1E07F2EF02DD7011596D9
:104E10006D917D918D919C911897A5019401E4D09D
:104E2000672B682B692B09F09AC0F7018381948165
:104E300001969483838320916901213089F4B20122
:104E4000C0D0892B09F07FC080818F5F80838081F3
:104E5000843608F47EC010926901D092670179C04F
:104E60001082209166012130E1F4B201AAD0892B91
:104E7000D9F4F701818192810196928381838181A6
:104E80009281E8D0882311F090E026DFD7011196B7
:104E90008D919C9112978436910534F010926601A1
:104EA00003C0F7011282118289B380958093D401E7
:104EB000882311F180910001811120C0D09200015E
:104EC00080E890E009DF89B380958093D401803435
:104ED00019F0803841F00DC0D701EC91F0E0EF5FA0
:104EE000FE4F308206C0D701EC91F0E0EF5FFE4F3D
:104EF000C0828091690102C0109200018091670117
:104F00008823A1F001E011E0C0E0D0E0F801619158
:104F10008F01CE01A7D02196C536D105B9F780E023
:104F200090E0DADE109267011092690180916801C9
:104F3000882309F46BCF85E6D3011D928A95E9F7A2
:104F40001092680163CF80916601813009F0A9CF8A
:104F5000ABCF80916601813009F0A3CF8ACF8091D9
:104F600067018111CFCFE2CFCF93DF93EC019B019B
:104F700040E050E060E472E48FE090E035D02150F2
:104F80003109209759F410983093900029B988E19D
:104F90008AB9579A86E08093950010C0219771F4E2
:104FA0003093980020939900EAE9F0E088E180834B
:104FB00080818068808386E080939D00DF91CF911F
:104FC000089597FB072E16F4009406D077FD08D0BD
:104FD0002DD007FC05D03EF4909581959F4F089504
:104FE000709561957F4F0895A1E21A2EAA1BBB1BF5
:104FF000FD010DC0AA1FBB1FEE1FFF1FA217B307A5
:10500000E407F50720F0A21BB30BE40BF50B661FBA
:10501000771F881F991F1A9469F76095709580957E
:1050200090959B01AC01BD01CF010895AA1BBB1B4C
:1050300051E107C0AA1FBB1FA617B70710F0A61B98
:10504000B70B881F991F5A95A9F780959095BC01B9
:10505000CD010895E199FECF9FBB8EBBE09A9927C1
:105060008DB30895262FE199FECF9FBB8EBBE09AAA
:1050700001970DB2021631F02DBB0FB6F894E29AEB
:0A508000E19A0FBE0895F894FFCFE7
:00000001FF
